{
  "_format": "hh-sol-artifact-1",
  "contractName": "OsakaToken",
  "sourceName": "contracts/OsakaToken.sol",
  "abi": [
    {
      "inputs": [
        {
          "internalType": "uint256",
          "name": "initialSupply",
          "type": "uint256"
        }
      ],
      "stateMutability": "nonpayable",
      "type": "constructor"
    },
    {
      "anonymous": false,
      "inputs": [
        {
          "indexed": true,
          "internalType": "address",
          "name": "_owner",
          "type": "address"
        },
        {
          "indexed": true,
          "internalType": "address",
          "name": "_spender",
          "type": "address"
        },
        {
          "indexed": false,
          "internalType": "uint256",
          "name": "_value",
          "type": "uint256"
        }
      ],
      "name": "Approval",
      "type": "event"
    },
    {
      "anonymous": false,
      "inputs": [
        {
          "indexed": true,
          "internalType": "address",
          "name": "from",
          "type": "address"
        },
        {
          "indexed": true,
          "internalType": "address",
          "name": "to",
          "type": "address"
        },
        {
          "indexed": false,
          "internalType": "uint256",
          "name": "value",
          "type": "uint256"
        }
      ],
      "name": "Transfer",
      "type": "event"
    },
    {
      "inputs": [
        {
          "internalType": "address",
          "name": "",
          "type": "address"
        },
        {
          "internalType": "address",
          "name": "",
          "type": "address"
        }
      ],
      "name": "allowance",
      "outputs": [
        {
          "internalType": "uint256",
          "name": "",
          "type": "uint256"
        }
      ],
      "stateMutability": "view",
      "type": "function"
    },
    {
      "inputs": [
        {
          "internalType": "address",
          "name": "_spender",
          "type": "address"
        },
        {
          "internalType": "uint256",
          "name": "_value",
          "type": "uint256"
        }
      ],
      "name": "approve",
      "outputs": [
        {
          "internalType": "bool",
          "name": "success",
          "type": "bool"
        }
      ],
      "stateMutability": "nonpayable",
      "type": "function"
    },
    {
      "inputs": [
        {
          "internalType": "address",
          "name": "",
          "type": "address"
        }
      ],
      "name": "balanceOf",
      "outputs": [
        {
          "internalType": "uint256",
          "name": "",
          "type": "uint256"
        }
      ],
      "stateMutability": "view",
      "type": "function"
    },
    {
      "inputs": [],
      "name": "decimals",
      "outputs": [
        {
          "internalType": "uint8",
          "name": "",
          "type": "uint8"
        }
      ],
      "stateMutability": "view",
      "type": "function"
    },
    {
      "inputs": [],
      "name": "getTokenHolder",
      "outputs": [
        {
          "internalType": "address[]",
          "name": "",
          "type": "address[]"
        }
      ],
      "stateMutability": "view",
      "type": "function"
    },
    {
      "inputs": [
        {
          "internalType": "address",
          "name": "_address",
          "type": "address"
        }
      ],
      "name": "getTokenHolderData",
      "outputs": [
        {
          "internalType": "uint256",
          "name": "",
          "type": "uint256"
        },
        {
          "internalType": "address",
          "name": "",
          "type": "address"
        },
        {
          "internalType": "address",
          "name": "",
          "type": "address"
        },
        {
          "internalType": "uint256",
          "name": "",
          "type": "uint256"
        },
        {
          "internalType": "bool",
          "name": "",
          "type": "bool"
        }
      ],
      "stateMutability": "view",
      "type": "function"
    },
    {
      "inputs": [
        {
          "internalType": "uint256",
          "name": "",
          "type": "uint256"
        }
      ],
      "name": "holderToken",
      "outputs": [
        {
          "internalType": "address",
          "name": "",
          "type": "address"
        }
      ],
      "stateMutability": "view",
      "type": "function"
    },
    {
      "inputs": [],
      "name": "name",
      "outputs": [
        {
          "internalType": "string",
          "name": "",
          "type": "string"
        }
      ],
      "stateMutability": "view",
      "type": "function"
    },
    {
      "inputs": [],
      "name": "ownerOfContract",
      "outputs": [
        {
          "internalType": "address",
          "name": "",
          "type": "address"
        }
      ],
      "stateMutability": "view",
      "type": "function"
    },
    {
      "inputs": [],
      "name": "standard",
      "outputs": [
        {
          "internalType": "string",
          "name": "",
          "type": "string"
        }
      ],
      "stateMutability": "view",
      "type": "function"
    },
    {
      "inputs": [],
      "name": "symbol",
      "outputs": [
        {
          "internalType": "string",
          "name": "",
          "type": "string"
        }
      ],
      "stateMutability": "view",
      "type": "function"
    },
    {
      "inputs": [
        {
          "internalType": "address",
          "name": "",
          "type": "address"
        }
      ],
      "name": "tokenHolderInfos",
      "outputs": [
        {
          "internalType": "uint256",
          "name": "_tokenId",
          "type": "uint256"
        },
        {
          "internalType": "address",
          "name": "_from",
          "type": "address"
        },
        {
          "internalType": "address",
          "name": "_to",
          "type": "address"
        },
        {
          "internalType": "uint256",
          "name": "_totalToken",
          "type": "uint256"
        },
        {
          "internalType": "bool",
          "name": "_tokenHolder",
          "type": "bool"
        }
      ],
      "stateMutability": "view",
      "type": "function"
    },
    {
      "inputs": [],
      "name": "totalSupply",
      "outputs": [
        {
          "internalType": "uint256",
          "name": "",
          "type": "uint256"
        }
      ],
      "stateMutability": "view",
      "type": "function"
    },
    {
      "inputs": [],
      "name": "transactionId",
      "outputs": [
        {
          "internalType": "uint256",
          "name": "",
          "type": "uint256"
        }
      ],
      "stateMutability": "view",
      "type": "function"
    },
    {
      "inputs": [
        {
          "internalType": "address",
          "name": "to",
          "type": "address"
        },
        {
          "internalType": "uint256",
          "name": "amount",
          "type": "uint256"
        }
      ],
      "name": "transfer",
      "outputs": [
        {
          "internalType": "bool",
          "name": "success",
          "type": "bool"
        }
      ],
      "stateMutability": "nonpayable",
      "type": "function"
    },
    {
      "inputs": [
        {
          "internalType": "address",
          "name": "_from",
          "type": "address"
        },
        {
          "internalType": "address",
          "name": "_to",
          "type": "address"
        },
        {
          "internalType": "uint256",
          "name": "_value",
          "type": "uint256"
        }
      ],
      "name": "transferFrom",
      "outputs": [
        {
          "internalType": "bool",
          "name": "seuccess",
          "type": "bool"
        }
      ],
      "stateMutability": "nonpayable",
      "type": "function"
    }
  ],
  "bytecode": "0x60806040526040518060400160405280600a81526020017f4f73616b61546f6b656e00000000000000000000000000000000000000000000815250600090816100489190610423565b506040518060400160405280600381526020017f4f534b00000000000000000000000000000000000000000000000000000000008152506001908161008d9190610423565b506012600260006101000a81548160ff021916908360ff1602179055506040518060400160405280600e81526020017f46756e746f6b656e20762e302e31000000000000000000000000000000000000815250600590816100ee9190610423565b503480156100fb57600080fd5b50604051611a16380380611a16833981810160405281019061011d9190610526565b33600460006101000a81548173ffffffffffffffffffffffffffffffffffffffff021916908373ffffffffffffffffffffffffffffffffffffffff1602179055508060038190555060035460076000600460009054906101000a900473ffffffffffffffffffffffffffffffffffffffff1673ffffffffffffffffffffffffffffffffffffffff1673ffffffffffffffffffffffffffffffffffffffff1681526020019081526020016000208190555050610553565b600081519050919050565b7f4e487b7100000000000000000000000000000000000000000000000000000000600052604160045260246000fd5b7f4e487b7100000000000000000000000000000000000000000000000000000000600052602260045260246000fd5b6000600282049050600182168061025457607f821691505b6020821081036102675761026661020d565b5b50919050565b60008190508160005260206000209050919050565b60006020601f8301049050919050565b600082821b905092915050565b6000600883026102cf7fffffffffffffffffffffffffffffffffffffffffffffffffffffffffffffffff82610292565b6102d98683610292565b95508019841693508086168417925050509392505050565b6000819050919050565b6000819050919050565b600061032061031b610316846102f1565b6102fb565b6102f1565b9050919050565b6000819050919050565b61033a83610305565b61034e61034682610327565b84845461029f565b825550505050565b600090565b610363610356565b61036e818484610331565b505050565b5b818110156103925761038760008261035b565b600181019050610374565b5050565b601f8211156103d7576103a88161026d565b6103b184610282565b810160208510156103c0578190505b6103d46103cc85610282565b830182610373565b50505b505050565b600082821c905092915050565b60006103fa600019846008026103dc565b1980831691505092915050565b600061041383836103e9565b9150826002028217905092915050565b61042c826101d3565b67ffffffffffffffff811115610445576104446101de565b5b61044f825461023c565b61045a828285610396565b600060209050601f83116001811461048d576000841561047b578287015190505b6104858582610407565b8655506104ed565b601f19841661049b8661026d565b60005b828110156104c35784890151825560018201915060208501945060208101905061049e565b868310156104e057848901516104dc601f8916826103e9565b8355505b6001600288020188555050505b505050505050565b600080fd5b610503816102f1565b811461050e57600080fd5b50565b600081519050610520816104fa565b92915050565b60006020828403121561053c5761053b6104f5565b5b600061054a84828501610511565b91505092915050565b6114b4806105626000396000f3fe608060405234801561001057600080fd5b50600436106101005760003560e01c806370a082311161009757806395d89b411161006657806395d89b41146102e1578063a9059cbb146102ff578063ba8e35571461032f578063dd62ed3e1461034d57610100565b806370a082311461022f578063760b06c51461025f5780637e2f42e71461028f57806382b68263146102ad57610100565b806329cc66ed116100d357806329cc66ed146101a1578063313ce567146101d5578063468229ae146101f35780635a3b7e421461021157610100565b806306fdde0314610105578063095ea7b31461012357806318160ddd1461015357806323b872dd14610171575b600080fd5b61010d61037d565b60405161011a9190610ef7565b60405180910390f35b61013d60048036038101906101389190610fb2565b61040b565b60405161014a919061100d565b60405180910390f35b61015b6104fd565b6040516101689190611037565b60405180910390f35b61018b60048036038101906101869190611052565b610503565b604051610198919061100d565b60405180910390f35b6101bb60048036038101906101b691906110a5565b6106b4565b6040516101cc9594939291906110e1565b60405180910390f35b6101dd610737565b6040516101ea9190611150565b60405180910390f35b6101fb61074a565b604051610208919061116b565b60405180910390f35b610219610770565b6040516102269190610ef7565b60405180910390f35b610249600480360381019061024491906110a5565b6107fe565b6040516102569190611037565b60405180910390f35b61027960048036038101906102749190611186565b610816565b604051610286919061116b565b60405180910390f35b610297610855565b6040516102a49190611037565b60405180910390f35b6102c760048036038101906102c291906110a5565b61085b565b6040516102d89594939291906110e1565b60405180910390f35b6102e9610a12565b6040516102f69190610ef7565b60405180910390f35b61031960048036038101906103149190610fb2565b610aa0565b604051610326919061100d565b60405180910390f35b610337610d9a565b6040516103449190611271565b60405180910390f35b61036760048036038101906103629190611293565b610e28565b6040516103749190611037565b60405180910390f35b6000805461038a90611302565b80601f01602080910402602001604051908101604052809291908181526020018280546103b690611302565b80156104035780601f106103d857610100808354040283529160200191610403565b820191906000526020600020905b8154815290600101906020018083116103e657829003601f168201915b505050505081565b600081600960003373ffffffffffffffffffffffffffffffffffffffff1673ffffffffffffffffffffffffffffffffffffffff16815260200190815260200160002060008573ffffffffffffffffffffffffffffffffffffffff1673ffffffffffffffffffffffffffffffffffffffff168152602001908152602001600020819055508273ffffffffffffffffffffffffffffffffffffffff163373ffffffffffffffffffffffffffffffffffffffff167f8c5be1e5ebec7d5bd14f71427d1e84f3dd0314c0f7b2291e5b200ac8c7c3b925846040516104eb9190611037565b60405180910390a36001905092915050565b60035481565b600081600760008673ffffffffffffffffffffffffffffffffffffffff1673ffffffffffffffffffffffffffffffffffffffff16815260200190815260200160002060008282546105549190611362565b9250508190555081600760008573ffffffffffffffffffffffffffffffffffffffff1673ffffffffffffffffffffffffffffffffffffffff16815260200190815260200160002060008282546105aa9190611396565b9250508190555081600960008673ffffffffffffffffffffffffffffffffffffffff1673ffffffffffffffffffffffffffffffffffffffff16815260200190815260200160002060003373ffffffffffffffffffffffffffffffffffffffff1673ffffffffffffffffffffffffffffffffffffffff168152602001908152602001600020600082825461063d9190611362565b925050819055508273ffffffffffffffffffffffffffffffffffffffff168473ffffffffffffffffffffffffffffffffffffffff167fddf252ad1be2c89b69c2b068fc378daa952ba7f163c4a11628f55a4df523b3ef846040516106a19190611037565b60405180910390a3600190509392505050565b60086020528060005260406000206000915090508060000154908060010160009054906101000a900473ffffffffffffffffffffffffffffffffffffffff16908060020160009054906101000a900473ffffffffffffffffffffffffffffffffffffffff16908060030154908060040160009054906101000a900460ff16905085565b600260009054906101000a900460ff1681565b600460009054906101000a900473ffffffffffffffffffffffffffffffffffffffff1681565b6005805461077d90611302565b80601f01602080910402602001604051908101604052809291908181526020018280546107a990611302565b80156107f65780601f106107cb576101008083540402835291602001916107f6565b820191906000526020600020905b8154815290600101906020018083116107d957829003601f168201915b505050505081565b60076020528060005260406000206000915090505481565b6006818154811061082657600080fd5b906000526020600020016000915054906101000a900473ffffffffffffffffffffffffffffffffffffffff1681565b600a5481565b6000806000806000600860008773ffffffffffffffffffffffffffffffffffffffff1673ffffffffffffffffffffffffffffffffffffffff16815260200190815260200160002060000154600860008873ffffffffffffffffffffffffffffffffffffffff1673ffffffffffffffffffffffffffffffffffffffff16815260200190815260200160002060020160009054906101000a900473ffffffffffffffffffffffffffffffffffffffff16600860008973ffffffffffffffffffffffffffffffffffffffff1673ffffffffffffffffffffffffffffffffffffffff16815260200190815260200160002060010160009054906101000a900473ffffffffffffffffffffffffffffffffffffffff16600860008a73ffffffffffffffffffffffffffffffffffffffff1673ffffffffffffffffffffffffffffffffffffffff16815260200190815260200160002060030154600860008b73ffffffffffffffffffffffffffffffffffffffff1673ffffffffffffffffffffffffffffffffffffffff16815260200190815260200160002060040160009054906101000a900460ff169450945094509450945091939590929450565b60018054610a1f90611302565b80601f0160208091040260200160405190810160405280929190818152602001828054610a4b90611302565b8015610a985780601f10610a6d57610100808354040283529160200191610a98565b820191906000526020600020905b815481529060010190602001808311610a7b57829003601f168201915b505050505081565b600081600760003373ffffffffffffffffffffffffffffffffffffffff1673ffffffffffffffffffffffffffffffffffffffff168152602001908152602001600020541015610b24576040517f08c379a0000000000000000000000000000000000000000000000000000000008152600401610b1b90611416565b60405180910390fd5b610b2c610e4d565b81600760003373ffffffffffffffffffffffffffffffffffffffff1673ffffffffffffffffffffffffffffffffffffffff1681526020019081526020016000206000828254610b7b9190611362565b9250508190555081600760008573ffffffffffffffffffffffffffffffffffffffff1673ffffffffffffffffffffffffffffffffffffffff1681526020019081526020016000206000828254610bd19190611396565b925050819055506000600860008573ffffffffffffffffffffffffffffffffffffffff1673ffffffffffffffffffffffffffffffffffffffff1681526020019081526020016000209050838160020160006101000a81548173ffffffffffffffffffffffffffffffffffffffff021916908373ffffffffffffffffffffffffffffffffffffffff160217905550338160010160006101000a81548173ffffffffffffffffffffffffffffffffffffffff021916908373ffffffffffffffffffffffffffffffffffffffff16021790555082816003018190555060018160040160006101000a81548160ff0219169083151502179055506006849080600181540180825580915050600190039060005260206000200160009091909190916101000a81548173ffffffffffffffffffffffffffffffffffffffff021916908373ffffffffffffffffffffffffffffffffffffffff1602179055508373ffffffffffffffffffffffffffffffffffffffff163373ffffffffffffffffffffffffffffffffffffffff167fddf252ad1be2c89b69c2b068fc378daa952ba7f163c4a11628f55a4df523b3ef85604051610d879190611037565b60405180910390a3600191505092915050565b60606006805480602002602001604051908101604052809291908181526020018280548015610e1e57602002820191906000526020600020905b8160009054906101000a900473ffffffffffffffffffffffffffffffffffffffff1673ffffffffffffffffffffffffffffffffffffffff1681526020019060010190808311610dd4575b5050505050905090565b6009602052816000526040600020602052806000526040600020600091509150505481565b600a6000815480929190610e6090611436565b9190505550565b600081519050919050565b600082825260208201905092915050565b60005b83811015610ea1578082015181840152602081019050610e86565b60008484015250505050565b6000601f19601f8301169050919050565b6000610ec982610e67565b610ed38185610e72565b9350610ee3818560208601610e83565b610eec81610ead565b840191505092915050565b60006020820190508181036000830152610f118184610ebe565b905092915050565b600080fd5b600073ffffffffffffffffffffffffffffffffffffffff82169050919050565b6000610f4982610f1e565b9050919050565b610f5981610f3e565b8114610f6457600080fd5b50565b600081359050610f7681610f50565b92915050565b6000819050919050565b610f8f81610f7c565b8114610f9a57600080fd5b50565b600081359050610fac81610f86565b92915050565b60008060408385031215610fc957610fc8610f19565b5b6000610fd785828601610f67565b9250506020610fe885828601610f9d565b9150509250929050565b60008115159050919050565b61100781610ff2565b82525050565b60006020820190506110226000830184610ffe565b92915050565b61103181610f7c565b82525050565b600060208201905061104c6000830184611028565b92915050565b60008060006060848603121561106b5761106a610f19565b5b600061107986828701610f67565b935050602061108a86828701610f67565b925050604061109b86828701610f9d565b9150509250925092565b6000602082840312156110bb576110ba610f19565b5b60006110c984828501610f67565b91505092915050565b6110db81610f3e565b82525050565b600060a0820190506110f66000830188611028565b61110360208301876110d2565b61111060408301866110d2565b61111d6060830185611028565b61112a6080830184610ffe565b9695505050505050565b600060ff82169050919050565b61114a81611134565b82525050565b60006020820190506111656000830184611141565b92915050565b600060208201905061118060008301846110d2565b92915050565b60006020828403121561119c5761119b610f19565b5b60006111aa84828501610f9d565b91505092915050565b600081519050919050565b600082825260208201905092915050565b6000819050602082019050919050565b6111e881610f3e565b82525050565b60006111fa83836111df565b60208301905092915050565b6000602082019050919050565b600061121e826111b3565b61122881856111be565b9350611233836111cf565b8060005b8381101561126457815161124b88826111ee565b975061125683611206565b925050600181019050611237565b5085935050505092915050565b6000602082019050818103600083015261128b8184611213565b905092915050565b600080604083850312156112aa576112a9610f19565b5b60006112b885828601610f67565b92505060206112c985828601610f67565b9150509250929050565b7f4e487b7100000000000000000000000000000000000000000000000000000000600052602260045260246000fd5b6000600282049050600182168061131a57607f821691505b60208210810361132d5761132c6112d3565b5b50919050565b7f4e487b7100000000000000000000000000000000000000000000000000000000600052601160045260246000fd5b600061136d82610f7c565b915061137883610f7c565b92508282039050818111156113905761138f611333565b5b92915050565b60006113a182610f7c565b91506113ac83610f7c565b92508282019050808211156113c4576113c3611333565b5b92915050565b7f496e73756666696369656e742062616c616e6365000000000000000000000000600082015250565b6000611400601483610e72565b915061140b826113ca565b602082019050919050565b6000602082019050818103600083015261142f816113f3565b9050919050565b600061144182610f7c565b91507fffffffffffffffffffffffffffffffffffffffffffffffffffffffffffffffff820361147357611472611333565b5b60018201905091905056fea264697066735822122007b753b41e761b997e75a03a23623b257eaee3ef2daef9edea60bc035a54179d64736f6c634300081b0033",
  "linkReferences": {},
  "deployedLinkReferences": {}
}